{
  "_format": "hh-sol-artifact-1",
  "contractName": "Registry",
  "sourceName": "contracts/Registry.sol",
  "abi": [
    {
      "anonymous": false,
      "inputs": [
        {
          "indexed": true,
          "internalType": "uint256",
          "name": "boxId",
          "type": "uint256"
        },
        {
          "indexed": true,
          "internalType": "address",
          "name": "sender",
          "type": "address"
        },
        {
          "indexed": false,
          "internalType": "string",
          "name": "offchainBoxId",
          "type": "string"
        }
      ],
      "name": "BoxCreated",
      "type": "event"
    },
    {
      "anonymous": false,
      "inputs": [
        {
          "indexed": true,
          "internalType": "uint256",
          "name": "boxId",
          "type": "uint256"
        },
        {
          "indexed": true,
          "internalType": "address",
          "name": "reciever",
          "type": "address"
        },
        {
          "indexed": false,
          "internalType": "string",
          "name": "offchainBoxId",
          "type": "string"
        }
      ],
      "name": "Claim",
      "type": "event"
    },
    {
      "anonymous": false,
      "inputs": [
        {
          "indexed": true,
          "internalType": "uint256",
          "name": "boxId",
          "type": "uint256"
        },
        {
          "indexed": true,
          "internalType": "address",
          "name": "reciever",
          "type": "address"
        },
        {
          "indexed": false,
          "internalType": "string",
          "name": "offchainBoxId",
          "type": "string"
        }
      ],
      "name": "Refund",
      "type": "event"
    },
    {
      "inputs": [
        {
          "internalType": "uint256",
          "name": "boxId",
          "type": "uint256"
        },
        {
          "internalType": "string",
          "name": "secret",
          "type": "string"
        },
        {
          "internalType": "string",
          "name": "offchainBoxId",
          "type": "string"
        }
      ],
      "name": "claim",
      "outputs": [],
      "stateMutability": "nonpayable",
      "type": "function"
    },
    {
      "inputs": [
        {
          "internalType": "address",
          "name": "reciever",
          "type": "address"
        },
        {
          "internalType": "address",
          "name": "token",
          "type": "address"
        },
        {
          "internalType": "uint256",
          "name": "amount",
          "type": "uint256"
        },
        {
          "internalType": "bytes32",
          "name": "hashSecret",
          "type": "bytes32"
        },
        {
          "internalType": "uint256",
          "name": "unlockTimestamp",
          "type": "uint256"
        },
        {
          "internalType": "string",
          "name": "offchainBoxId",
          "type": "string"
        }
      ],
      "name": "createBox",
      "outputs": [],
      "stateMutability": "nonpayable",
      "type": "function"
    },
    {
      "inputs": [
        {
          "internalType": "uint256",
          "name": "boxId",
          "type": "uint256"
        }
      ],
      "name": "getBoxById",
      "outputs": [
        {
          "components": [
            {
              "internalType": "uint256",
              "name": "id",
              "type": "uint256"
            },
            {
              "internalType": "address",
              "name": "sender",
              "type": "address"
            },
            {
              "internalType": "address",
              "name": "reciever",
              "type": "address"
            },
            {
              "internalType": "address",
              "name": "token",
              "type": "address"
            },
            {
              "internalType": "uint256",
              "name": "amount",
              "type": "uint256"
            },
            {
              "internalType": "bytes32",
              "name": "hashSecret",
              "type": "bytes32"
            },
            {
              "internalType": "uint256",
              "name": "unlockTimestamp",
              "type": "uint256"
            },
            {
              "internalType": "bool",
              "name": "isActive",
              "type": "bool"
            }
          ],
          "internalType": "struct Registry.Box",
          "name": "",
          "type": "tuple"
        }
      ],
      "stateMutability": "view",
      "type": "function"
    },
    {
      "inputs": [
        {
          "internalType": "uint256",
          "name": "boxId",
          "type": "uint256"
        },
        {
          "internalType": "string",
          "name": "offchainBoxId",
          "type": "string"
        }
      ],
      "name": "refund",
      "outputs": [],
      "stateMutability": "nonpayable",
      "type": "function"
    }
  ],
  "bytecode": "0x608060405234801561001057600080fd5b50610dfc806100206000396000f3fe608060405234801561001057600080fd5b506004361061004c5760003560e01c8063430311a6146100515780635f2a9e871461006657806365670b5d1461007957806379fe93931461008c575b600080fd5b61006461005f366004610b80565b6101f1565b005b610064610074366004610c75565b610361565b610064610087366004610c30565b610526565b61016761009a366004610c18565b6040805161010081018252600080825260208201819052918101829052606081018290526080810182905260a0810182905260c0810182905260e0810191909152506000908152602081815260409182902082516101008101845281548152600182015473ffffffffffffffffffffffffffffffffffffffff9081169382019390935260028201548316938101939093526003810154909116606083015260048101546080830152600581015460a0830152600681015460c08301526007015460ff16151560e082015290565b6040516101e8919060006101008201905082518252602083015173ffffffffffffffffffffffffffffffffffffffff808216602085015280604086015116604085015280606086015116606085015250506080830151608083015260a083015160a083015260c083015160c083015260e0830151151560e083015292915050565b60405180910390f35b60018060008282546102039190610d2e565b909155505060408051610100810182526001805480835233602080850182815273ffffffffffffffffffffffffffffffffffffffff8d81168789019081528d82166060890181815260808a018f815260a08b018f815260c08c018f815260e08d018c815260009b8c52988b90529c9099209a518b559451988a0180549985167fffffffffffffffffffffffff00000000000000000000000000000000000000009a8b16179055915160028a018054918516918a1691909117905590516003890180549190931697169690961790555160048601559151600585015593516006840155516007909201805492151560ff199093169290921790915561030891308761070b565b3373ffffffffffffffffffffffffffffffffffffffff166001547fec9e83bc2d011ad35dc8200489f19e22fc1f3e211d68f81f794f7176c11203e5836040516103519190610cfb565b60405180910390a3505050505050565b6000838152602081905260409020600281015473ffffffffffffffffffffffffffffffffffffffff1633146103dd5760405162461bcd60e51b815260206004820152601560248201527f636c61696d3a2057726f6e67207265636965766572000000000000000000000060448201526064015b60405180910390fd5b826040516020016103ee9190610cdf565b604051602081830303815290604052805190602001208160050154146104565760405162461bcd60e51b815260206004820152601360248201527f636c61696d3a2057726f6e67207365637265740000000000000000000000000060448201526064016103d4565b600781015460ff166104aa5760405162461bcd60e51b815260206004820181905260248201527f636c61696d3a2053656e646572206861732077697468647261772066756e647360448201526064016103d4565b600481015460038201546104d89173ffffffffffffffffffffffffffffffffffffffff9091169033906107cf565b60078101805460ff19169055604051339085907fa84e9524cf93708ceb4c2aadd736004b5801d6b8eca252c63a9aa446189a075c90610518908690610cfb565b60405180910390a350505050565b6000828152602081905260409020600181015473ffffffffffffffffffffffffffffffffffffffff1633146105c35760405162461bcd60e51b815260206004820152602760248201527f726566756e643a204d73672e73656e646572206973206e6f74206120626f782060448201527f63726561746f720000000000000000000000000000000000000000000000000060648201526084016103d4565b80600601544210156106175760405162461bcd60e51b815260206004820152601f60248201527f726566756e643a20556e6c6f636b2074696d65206e6f7420726561636865640060448201526064016103d4565b600781015460ff166106905760405162461bcd60e51b8152602060048201526024808201527f726566756e643a20526563697069656e7420686173207769746864726177206660448201527f756e64730000000000000000000000000000000000000000000000000000000060648201526084016103d4565b600481015460038201546106be9173ffffffffffffffffffffffffffffffffffffffff9091169033906107cf565b60078101805460ff19169055604051339084907ff0f6b7f47c2e484d56d97e9daa612627536541878b8e527a46544dbb47df5501906106fe908690610cfb565b60405180910390a3505050565b60405173ffffffffffffffffffffffffffffffffffffffff808516602483015283166044820152606481018290526107c99085907f23b872dd00000000000000000000000000000000000000000000000000000000906084015b60408051601f198184030181529190526020810180517bffffffffffffffffffffffffffffffffffffffffffffffffffffffff167fffffffff000000000000000000000000000000000000000000000000000000009093169290921790915261082a565b50505050565b60405173ffffffffffffffffffffffffffffffffffffffff83166024820152604481018290526108259084907fa9059cbb0000000000000000000000000000000000000000000000000000000090606401610765565b505050565b600061088c826040518060400160405280602081526020017f5361666545524332303a206c6f772d6c6576656c2063616c6c206661696c65648152508573ffffffffffffffffffffffffffffffffffffffff1661091c9092919063ffffffff16565b80519091501561082557808060200190518101906108aa9190610bf8565b6108255760405162461bcd60e51b815260206004820152602a60248201527f5361666545524332303a204552433230206f7065726174696f6e20646964206e60448201527f6f7420737563636565640000000000000000000000000000000000000000000060648201526084016103d4565b606061092b8484600085610935565b90505b9392505050565b6060824710156109ad5760405162461bcd60e51b815260206004820152602660248201527f416464726573733a20696e73756666696369656e742062616c616e636520666f60448201527f722063616c6c000000000000000000000000000000000000000000000000000060648201526084016103d4565b73ffffffffffffffffffffffffffffffffffffffff85163b610a115760405162461bcd60e51b815260206004820152601d60248201527f416464726573733a2063616c6c20746f206e6f6e2d636f6e747261637400000060448201526064016103d4565b6000808673ffffffffffffffffffffffffffffffffffffffff168587604051610a3a9190610cdf565b60006040518083038185875af1925050503d8060008114610a77576040519150601f19603f3d011682016040523d82523d6000602084013e610a7c565b606091505b5091509150610a8c828286610a97565b979650505050505050565b60608315610aa657508161092e565b825115610ab65782518084602001fd5b8160405162461bcd60e51b81526004016103d49190610cfb565b803573ffffffffffffffffffffffffffffffffffffffff81168114610af457600080fd5b919050565b600082601f830112610b09578081fd5b813567ffffffffffffffff80821115610b2457610b24610d97565b604051601f8301601f19908116603f01168101908282118183101715610b4c57610b4c610d97565b81604052838152866020858801011115610b64578485fd5b8360208701602083013792830160200193909352509392505050565b60008060008060008060c08789031215610b98578182fd5b610ba187610ad0565b9550610baf60208801610ad0565b945060408701359350606087013592506080870135915060a087013567ffffffffffffffff811115610bdf578182fd5b610beb89828a01610af9565b9150509295509295509295565b600060208284031215610c09578081fd5b8151801515811461092e578182fd5b600060208284031215610c29578081fd5b5035919050565b60008060408385031215610c42578182fd5b82359150602083013567ffffffffffffffff811115610c5f578182fd5b610c6b85828601610af9565b9150509250929050565b600080600060608486031215610c89578283fd5b83359250602084013567ffffffffffffffff80821115610ca7578384fd5b610cb387838801610af9565b93506040860135915080821115610cc8578283fd5b50610cd586828701610af9565b9150509250925092565b60008251610cf1818460208701610d6b565b9190910192915050565b6020815260008251806020840152610d1a816040850160208701610d6b565b601f01601f19169190910160400192915050565b60008219821115610d66577f4e487b710000000000000000000000000000000000000000000000000000000081526011600452602481fd5b500190565b60005b83811015610d86578181015183820152602001610d6e565b838111156107c95750506000910152565b7f4e487b7100000000000000000000000000000000000000000000000000000000600052604160045260246000fdfea2646970667358221220e788c0cd2fe883abfd784e731e566c30569273df7f01dd6842039631b5a06bba64736f6c63430008040033",
  "linkReferences": {},
  "deployedLinkReferences": {}
}