{
  "_format": "hh-sol-artifact-1",
  "contractName": "Registry",
  "sourceName": "contracts/Registry.sol",
  "abi": [
    {
      "anonymous": false,
      "inputs": [
        {
          "indexed": true,
          "internalType": "uint256",
          "name": "boxId",
          "type": "uint256"
        },
        {
          "indexed": true,
          "internalType": "address",
          "name": "sender",
          "type": "address"
        },
        {
          "indexed": false,
          "internalType": "string",
          "name": "offchainBoxId",
          "type": "string"
        }
      ],
      "name": "BoxCreated",
      "type": "event"
    },
    {
      "anonymous": false,
      "inputs": [
        {
          "indexed": true,
          "internalType": "uint256",
          "name": "boxId",
          "type": "uint256"
        },
        {
          "indexed": true,
          "internalType": "address",
          "name": "reciever",
          "type": "address"
        },
        {
          "indexed": false,
          "internalType": "string",
          "name": "offchainBoxId",
          "type": "string"
        }
      ],
      "name": "Claim",
      "type": "event"
    },
    {
      "anonymous": false,
      "inputs": [
        {
          "indexed": true,
          "internalType": "uint256",
          "name": "boxId",
          "type": "uint256"
        },
        {
          "indexed": true,
          "internalType": "address",
          "name": "reciever",
          "type": "address"
        },
        {
          "indexed": false,
          "internalType": "string",
          "name": "offchainBoxId",
          "type": "string"
        }
      ],
      "name": "Refund",
      "type": "event"
    },
    {
      "inputs": [
        {
          "internalType": "uint256",
          "name": "boxId",
          "type": "uint256"
        },
        {
          "internalType": "string",
          "name": "secret",
          "type": "string"
        },
        {
          "internalType": "string",
          "name": "offchainBoxId",
          "type": "string"
        }
      ],
      "name": "claim",
      "outputs": [],
      "stateMutability": "nonpayable",
      "type": "function"
    },
    {
      "inputs": [
        {
          "internalType": "address",
          "name": "reciever",
          "type": "address"
        },
        {
          "internalType": "address",
          "name": "token",
          "type": "address"
        },
        {
          "internalType": "uint256",
          "name": "amount",
          "type": "uint256"
        },
        {
          "internalType": "bytes32",
          "name": "hashSecret",
          "type": "bytes32"
        },
        {
          "internalType": "uint256",
          "name": "unlockTimestamp",
          "type": "uint256"
        },
        {
          "internalType": "string",
          "name": "offchainBoxId",
          "type": "string"
        }
      ],
      "name": "createBox",
      "outputs": [],
      "stateMutability": "nonpayable",
      "type": "function"
    },
    {
      "inputs": [
        {
          "internalType": "uint256",
          "name": "boxId",
          "type": "uint256"
        }
      ],
      "name": "getBoxById",
      "outputs": [
        {
          "components": [
            {
              "internalType": "uint256",
              "name": "id",
              "type": "uint256"
            },
            {
              "internalType": "address",
              "name": "sender",
              "type": "address"
            },
            {
              "internalType": "address",
              "name": "reciever",
              "type": "address"
            },
            {
              "internalType": "address",
              "name": "token",
              "type": "address"
            },
            {
              "internalType": "uint256",
              "name": "amount",
              "type": "uint256"
            },
            {
              "internalType": "bytes32",
              "name": "hashSecret",
              "type": "bytes32"
            },
            {
              "internalType": "uint256",
              "name": "unlockTimestamp",
              "type": "uint256"
            },
            {
              "internalType": "bool",
              "name": "isActive",
              "type": "bool"
            }
          ],
          "internalType": "struct Registry.Box",
          "name": "",
          "type": "tuple"
        }
      ],
      "stateMutability": "view",
      "type": "function"
    },
    {
      "inputs": [
        {
          "internalType": "uint256",
          "name": "boxId",
          "type": "uint256"
        },
        {
          "internalType": "string",
          "name": "offchainBoxId",
          "type": "string"
        }
      ],
      "name": "refund",
      "outputs": [],
      "stateMutability": "nonpayable",
      "type": "function"
    }
  ],
  "bytecode": "0x608060405234801561001057600080fd5b50610d8d806100206000396000f3fe608060405234801561001057600080fd5b506004361061004c5760003560e01c8063430311a6146100515780635f2a9e871461006657806365670b5d1461007957806379fe93931461008c575b600080fd5b61006461005f366004610aef565b6101f1565b005b610064610074366004610be4565b61033f565b610064610087366004610b9f565b610504565b61016761009a366004610b87565b6040805161010081018252600080825260208201819052918101829052606081018290526080810182905260a0810182905260c0810182905260e0810191909152506000908152602081815260409182902082516101008101845281548152600182015473ffffffffffffffffffffffffffffffffffffffff9081169382019390935260028201548316938101939093526003810154909116606083015260048101546080830152600581015460a0830152600681015460c08301526007015460ff16151560e082015290565b6040516101e8919060006101008201905082518252602083015173ffffffffffffffffffffffffffffffffffffffff808216602085015280604086015116604085015280606086015116606085015250506080830151608083015260a083015160a083015260c083015160c083015260e0830151151560e083015292915050565b60405180910390f35b60018060008282546102039190610cbb565b909155505060408051610100810182526001805480835233602080850182815273ffffffffffffffffffffffffffffffffffffffff8d81168789019081528d821660608901908152608089018e815260a08a018e815260c08b018e815260e08c018b815260009a8b52978a9052988c90209a518b5594518a8a0180547fffffffffffffffffffffffff0000000000000000000000000000000000000000908116928716929092179055925160028b0180548516918616919091179055905160038a01805490931693169290921790555160048701555160058601559151600685015590516007909301805460ff1916931515939093179092555491519091907fec9e83bc2d011ad35dc8200489f19e22fc1f3e211d68f81f794f7176c11203e59061032f908590610c6a565b60405180910390a3505050505050565b6000838152602081905260409020600281015473ffffffffffffffffffffffffffffffffffffffff1633146103bb5760405162461bcd60e51b815260206004820152601560248201527f636c61696d3a2057726f6e67207265636965766572000000000000000000000060448201526064015b60405180910390fd5b826040516020016103cc9190610c4e565b604051602081830303815290604052805190602001208160050154146104345760405162461bcd60e51b815260206004820152601360248201527f636c61696d3a2057726f6e67207365637265740000000000000000000000000060448201526064016103b2565b600781015460ff166104885760405162461bcd60e51b815260206004820181905260248201527f636c61696d3a2053656e646572206861732077697468647261772066756e647360448201526064016103b2565b600481015460038201546104b69173ffffffffffffffffffffffffffffffffffffffff9091169033906106e9565b60078101805460ff19169055604051339085907fa84e9524cf93708ceb4c2aadd736004b5801d6b8eca252c63a9aa446189a075c906104f6908690610c6a565b60405180910390a350505050565b6000828152602081905260409020600181015473ffffffffffffffffffffffffffffffffffffffff1633146105a15760405162461bcd60e51b815260206004820152602760248201527f726566756e643a204d73672e73656e646572206973206e6f74206120626f782060448201527f63726561746f720000000000000000000000000000000000000000000000000060648201526084016103b2565b80600601544210156105f55760405162461bcd60e51b815260206004820152601f60248201527f726566756e643a20556e6c6f636b2074696d65206e6f7420726561636865640060448201526064016103b2565b600781015460ff1661066e5760405162461bcd60e51b8152602060048201526024808201527f726566756e643a20526563697069656e7420686173207769746864726177206660448201527f756e64730000000000000000000000000000000000000000000000000000000060648201526084016103b2565b6004810154600382015461069c9173ffffffffffffffffffffffffffffffffffffffff9091169033906106e9565b60078101805460ff19169055604051339084907ff0f6b7f47c2e484d56d97e9daa612627536541878b8e527a46544dbb47df5501906106dc908690610c6a565b60405180910390a3505050565b6040805173ffffffffffffffffffffffffffffffffffffffff8416602482015260448082018490528251808303909101815260649091019091526020810180517bffffffffffffffffffffffffffffffffffffffffffffffffffffffff167fa9059cbb0000000000000000000000000000000000000000000000000000000017905261077690849061077b565b505050565b60006107dd826040518060400160405280602081526020017f5361666545524332303a206c6f772d6c6576656c2063616c6c206661696c65648152508573ffffffffffffffffffffffffffffffffffffffff1661086d9092919063ffffffff16565b80519091501561077657808060200190518101906107fb9190610b67565b6107765760405162461bcd60e51b815260206004820152602a60248201527f5361666545524332303a204552433230206f7065726174696f6e20646964206e60448201527f6f7420737563636565640000000000000000000000000000000000000000000060648201526084016103b2565b606061087c8484600085610886565b90505b9392505050565b6060824710156108fe5760405162461bcd60e51b815260206004820152602660248201527f416464726573733a20696e73756666696369656e742062616c616e636520666f60448201527f722063616c6c000000000000000000000000000000000000000000000000000060648201526084016103b2565b73ffffffffffffffffffffffffffffffffffffffff85163b6109625760405162461bcd60e51b815260206004820152601d60248201527f416464726573733a2063616c6c20746f206e6f6e2d636f6e747261637400000060448201526064016103b2565b6000808673ffffffffffffffffffffffffffffffffffffffff16858760405161098b9190610c4e565b60006040518083038185875af1925050503d80600081146109c8576040519150601f19603f3d011682016040523d82523d6000602084013e6109cd565b606091505b50915091506109dd8282866109e8565b979650505050505050565b606083156109f757508161087f565b825115610a075782518084602001fd5b8160405162461bcd60e51b81526004016103b29190610c6a565b803573ffffffffffffffffffffffffffffffffffffffff81168114610a4557600080fd5b919050565b600082601f830112610a5a578081fd5b813567ffffffffffffffff80821115610a7557610a75610d28565b604051601f83017fffffffffffffffffffffffffffffffffffffffffffffffffffffffffffffffe0908116603f01168101908282118183101715610abb57610abb610d28565b81604052838152866020858801011115610ad3578485fd5b8360208701602083013792830160200193909352509392505050565b60008060008060008060c08789031215610b07578182fd5b610b1087610a21565b9550610b1e60208801610a21565b945060408701359350606087013592506080870135915060a087013567ffffffffffffffff811115610b4e578182fd5b610b5a89828a01610a4a565b9150509295509295509295565b600060208284031215610b78578081fd5b8151801515811461087f578182fd5b600060208284031215610b98578081fd5b5035919050565b60008060408385031215610bb1578182fd5b82359150602083013567ffffffffffffffff811115610bce578182fd5b610bda85828601610a4a565b9150509250929050565b600080600060608486031215610bf8578283fd5b83359250602084013567ffffffffffffffff80821115610c16578384fd5b610c2287838801610a4a565b93506040860135915080821115610c37578283fd5b50610c4486828701610a4a565b9150509250925092565b60008251610c60818460208701610cf8565b9190910192915050565b6020815260008251806020840152610c89816040850160208701610cf8565b601f017fffffffffffffffffffffffffffffffffffffffffffffffffffffffffffffffe0169190910160400192915050565b60008219821115610cf3577f4e487b710000000000000000000000000000000000000000000000000000000081526011600452602481fd5b500190565b60005b83811015610d13578181015183820152602001610cfb565b83811115610d22576000848401525b50505050565b7f4e487b7100000000000000000000000000000000000000000000000000000000600052604160045260246000fdfea26469706673582212203d7c7421ab231d8d7e4737f3838adb45e2959b98203a48720b27be98b37712e964736f6c63430008040033",
  "linkReferences": {},
  "deployedLinkReferences": {}
}