{
  "_format": "hh-sol-artifact-1",
  "contractName": "Root",
  "sourceName": "contracts/Root.sol",
  "abi": [
    {
      "inputs": [
        {
          "internalType": "string",
          "name": "name",
          "type": "string"
        }
      ],
      "stateMutability": "nonpayable",
      "type": "constructor"
    },
    {
      "anonymous": false,
      "inputs": [
        {
          "indexed": true,
          "internalType": "uint256",
          "name": "id",
          "type": "uint256"
        },
        {
          "indexed": false,
          "internalType": "string",
          "name": "offchainId",
          "type": "string"
        }
      ],
      "name": "CreateProject",
      "type": "event"
    },
    {
      "anonymous": false,
      "inputs": [
        {
          "indexed": false,
          "internalType": "address",
          "name": "userAddress",
          "type": "address"
        },
        {
          "indexed": false,
          "internalType": "address payable",
          "name": "relayerAddress",
          "type": "address"
        },
        {
          "indexed": false,
          "internalType": "bytes",
          "name": "functionSignature",
          "type": "bytes"
        }
      ],
      "name": "MetaTransactionExecuted",
      "type": "event"
    },
    {
      "anonymous": false,
      "inputs": [
        {
          "indexed": true,
          "internalType": "address",
          "name": "previousOwner",
          "type": "address"
        },
        {
          "indexed": true,
          "internalType": "address",
          "name": "newOwner",
          "type": "address"
        }
      ],
      "name": "OwnershipTransferred",
      "type": "event"
    },
    {
      "anonymous": false,
      "inputs": [
        {
          "indexed": true,
          "internalType": "uint256",
          "name": "id",
          "type": "uint256"
        },
        {
          "indexed": true,
          "internalType": "address",
          "name": "investor",
          "type": "address"
        }
      ],
      "name": "Redeemed",
      "type": "event"
    },
    {
      "anonymous": false,
      "inputs": [
        {
          "indexed": true,
          "internalType": "uint256",
          "name": "id",
          "type": "uint256"
        },
        {
          "indexed": true,
          "internalType": "address",
          "name": "investor",
          "type": "address"
        },
        {
          "indexed": true,
          "internalType": "uint256",
          "name": "amount",
          "type": "uint256"
        }
      ],
      "name": "RedeemedFCFS",
      "type": "event"
    },
    {
      "anonymous": false,
      "inputs": [
        {
          "indexed": true,
          "internalType": "uint256",
          "name": "id",
          "type": "uint256"
        }
      ],
      "name": "StartFCFS",
      "type": "event"
    },
    {
      "anonymous": false,
      "inputs": [
        {
          "indexed": true,
          "internalType": "uint256",
          "name": "id",
          "type": "uint256"
        }
      ],
      "name": "StartIDO",
      "type": "event"
    },
    {
      "anonymous": false,
      "inputs": [
        {
          "indexed": true,
          "internalType": "uint256",
          "name": "id",
          "type": "uint256"
        }
      ],
      "name": "WithdrawProject",
      "type": "event"
    },
    {
      "inputs": [],
      "name": "ERC712_VERSION",
      "outputs": [
        {
          "internalType": "string",
          "name": "",
          "type": "string"
        }
      ],
      "stateMutability": "view",
      "type": "function"
    },
    {
      "inputs": [
        {
          "internalType": "address[]",
          "name": "addrs",
          "type": "address[]"
        }
      ],
      "name": "addAdmins",
      "outputs": [],
      "stateMutability": "nonpayable",
      "type": "function"
    },
    {
      "inputs": [
        {
          "internalType": "uint256",
          "name": "projectId",
          "type": "uint256"
        },
        {
          "internalType": "uint256",
          "name": "addCount",
          "type": "uint256"
        }
      ],
      "name": "addTotalAmount",
      "outputs": [],
      "stateMutability": "nonpayable",
      "type": "function"
    },
    {
      "inputs": [
        {
          "internalType": "string",
          "name": "offChainId",
          "type": "string"
        }
      ],
      "name": "blockchainId",
      "outputs": [
        {
          "internalType": "uint256",
          "name": "",
          "type": "uint256"
        }
      ],
      "stateMutability": "view",
      "type": "function"
    },
    {
      "inputs": [
        {
          "internalType": "uint256",
          "name": "projectId",
          "type": "uint256"
        },
        {
          "internalType": "uint256[]",
          "name": "removedInvestorIndexes",
          "type": "uint256[]"
        },
        {
          "internalType": "int256[]",
          "name": "indexes",
          "type": "int256[]"
        },
        {
          "internalType": "address[]",
          "name": "investorAddrs",
          "type": "address[]"
        },
        {
          "internalType": "uint256[]",
          "name": "amounts",
          "type": "uint256[]"
        }
      ],
      "name": "changeProject",
      "outputs": [],
      "stateMutability": "nonpayable",
      "type": "function"
    },
    {
      "inputs": [
        {
          "internalType": "uint256",
          "name": "projectId",
          "type": "uint256"
        },
        {
          "components": [
            {
              "internalType": "contract IERC20",
              "name": "token",
              "type": "address"
            },
            {
              "internalType": "contract IERC20",
              "name": "claimToken",
              "type": "address"
            },
            {
              "internalType": "uint256",
              "name": "price",
              "type": "uint256"
            },
            {
              "internalType": "uint256[]",
              "name": "claimDates",
              "type": "uint256[]"
            },
            {
              "internalType": "uint256[]",
              "name": "claimPercent",
              "type": "uint256[]"
            }
          ],
          "internalType": "struct Root.ProjectProps",
          "name": "newProps",
          "type": "tuple"
        }
      ],
      "name": "changeProjectProps",
      "outputs": [],
      "stateMutability": "nonpayable",
      "type": "function"
    },
    {
      "inputs": [
        {
          "internalType": "uint256",
          "name": "projectId",
          "type": "uint256"
        }
      ],
      "name": "claimProject",
      "outputs": [],
      "stateMutability": "nonpayable",
      "type": "function"
    },
    {
      "inputs": [
        {
          "internalType": "uint256",
          "name": "projectId",
          "type": "uint256"
        }
      ],
      "name": "continueIDO",
      "outputs": [],
      "stateMutability": "nonpayable",
      "type": "function"
    },
    {
      "inputs": [
        {
          "components": [
            {
              "internalType": "contract IERC20",
              "name": "token",
              "type": "address"
            },
            {
              "internalType": "contract IERC20",
              "name": "claimToken",
              "type": "address"
            },
            {
              "internalType": "uint256",
              "name": "price",
              "type": "uint256"
            },
            {
              "internalType": "uint256[]",
              "name": "claimDates",
              "type": "uint256[]"
            },
            {
              "internalType": "uint256[]",
              "name": "claimPercent",
              "type": "uint256[]"
            }
          ],
          "internalType": "struct Root.ProjectProps",
          "name": "props",
          "type": "tuple"
        },
        {
          "internalType": "address[]",
          "name": "investors",
          "type": "address[]"
        },
        {
          "internalType": "uint256[]",
          "name": "amounts",
          "type": "uint256[]"
        },
        {
          "internalType": "string",
          "name": "offchainId",
          "type": "string"
        }
      ],
      "name": "createProject",
      "outputs": [],
      "stateMutability": "nonpayable",
      "type": "function"
    },
    {
      "inputs": [
        {
          "internalType": "contract IERC20",
          "name": "token",
          "type": "address"
        },
        {
          "internalType": "address[]",
          "name": "investors",
          "type": "address[]"
        },
        {
          "internalType": "uint256[]",
          "name": "amounts",
          "type": "uint256[]"
        }
      ],
      "name": "distribute",
      "outputs": [],
      "stateMutability": "nonpayable",
      "type": "function"
    },
    {
      "inputs": [
        {
          "internalType": "address",
          "name": "userAddress",
          "type": "address"
        },
        {
          "internalType": "bytes",
          "name": "functionSignature",
          "type": "bytes"
        },
        {
          "internalType": "bytes32",
          "name": "sigR",
          "type": "bytes32"
        },
        {
          "internalType": "bytes32",
          "name": "sigS",
          "type": "bytes32"
        },
        {
          "internalType": "uint8",
          "name": "sigV",
          "type": "uint8"
        }
      ],
      "name": "executeMetaTransaction",
      "outputs": [
        {
          "internalType": "bytes",
          "name": "",
          "type": "bytes"
        }
      ],
      "stateMutability": "payable",
      "type": "function"
    },
    {
      "inputs": [],
      "name": "getChainId",
      "outputs": [
        {
          "internalType": "uint256",
          "name": "",
          "type": "uint256"
        }
      ],
      "stateMutability": "view",
      "type": "function"
    },
    {
      "inputs": [],
      "name": "getDomainSeperator",
      "outputs": [
        {
          "internalType": "bytes32",
          "name": "",
          "type": "bytes32"
        }
      ],
      "stateMutability": "view",
      "type": "function"
    },
    {
      "inputs": [
        {
          "internalType": "address",
          "name": "user",
          "type": "address"
        }
      ],
      "name": "getNonce",
      "outputs": [
        {
          "internalType": "uint256",
          "name": "nonce",
          "type": "uint256"
        }
      ],
      "stateMutability": "view",
      "type": "function"
    },
    {
      "inputs": [],
      "name": "getSigner",
      "outputs": [
        {
          "internalType": "address",
          "name": "",
          "type": "address"
        }
      ],
      "stateMutability": "view",
      "type": "function"
    },
    {
      "inputs": [
        {
          "internalType": "address",
          "name": "investorAddr",
          "type": "address"
        },
        {
          "internalType": "uint256",
          "name": "projectId",
          "type": "uint256"
        }
      ],
      "name": "investorIndexFromProject",
      "outputs": [
        {
          "internalType": "uint256",
          "name": "",
          "type": "uint256"
        }
      ],
      "stateMutability": "view",
      "type": "function"
    },
    {
      "inputs": [
        {
          "internalType": "address",
          "name": "addr",
          "type": "address"
        }
      ],
      "name": "isAdmin",
      "outputs": [
        {
          "internalType": "bool",
          "name": "",
          "type": "bool"
        }
      ],
      "stateMutability": "view",
      "type": "function"
    },
    {
      "inputs": [],
      "name": "owner",
      "outputs": [
        {
          "internalType": "address",
          "name": "",
          "type": "address"
        }
      ],
      "stateMutability": "view",
      "type": "function"
    },
    {
      "inputs": [
        {
          "internalType": "uint256",
          "name": "projectId",
          "type": "uint256"
        }
      ],
      "name": "pauseIDO",
      "outputs": [],
      "stateMutability": "nonpayable",
      "type": "function"
    },
    {
      "inputs": [
        {
          "internalType": "uint256",
          "name": "projectId",
          "type": "uint256"
        }
      ],
      "name": "projectById",
      "outputs": [
        {
          "components": [
            {
              "internalType": "uint256",
              "name": "id",
              "type": "uint256"
            },
            {
              "components": [
                {
                  "internalType": "contract IERC20",
                  "name": "token",
                  "type": "address"
                },
                {
                  "internalType": "contract IERC20",
                  "name": "claimToken",
                  "type": "address"
                },
                {
                  "internalType": "uint256",
                  "name": "price",
                  "type": "uint256"
                },
                {
                  "internalType": "uint256[]",
                  "name": "claimDates",
                  "type": "uint256[]"
                },
                {
                  "internalType": "uint256[]",
                  "name": "claimPercent",
                  "type": "uint256[]"
                }
              ],
              "internalType": "struct Root.ProjectProps",
              "name": "props",
              "type": "tuple"
            },
            {
              "internalType": "address[]",
              "name": "investors",
              "type": "address[]"
            },
            {
              "internalType": "uint256[]",
              "name": "amounts",
              "type": "uint256[]"
            },
            {
              "internalType": "uint256[]",
              "name": "redeemed",
              "type": "uint256[]"
            },
            {
              "internalType": "uint256[]",
              "name": "claimed",
              "type": "uint256[]"
            },
            {
              "internalType": "uint256",
              "name": "totalInvested",
              "type": "uint256"
            },
            {
              "internalType": "uint256",
              "name": "availableBalance",
              "type": "uint256"
            },
            {
              "internalType": "enum Root.State",
              "name": "state",
              "type": "uint8"
            },
            {
              "internalType": "bool",
              "name": "isActive",
              "type": "bool"
            }
          ],
          "internalType": "struct Root.Project",
          "name": "",
          "type": "tuple"
        }
      ],
      "stateMutability": "view",
      "type": "function"
    },
    {
      "inputs": [
        {
          "internalType": "uint256",
          "name": "projectId",
          "type": "uint256"
        }
      ],
      "name": "redeemAllocation",
      "outputs": [],
      "stateMutability": "nonpayable",
      "type": "function"
    },
    {
      "inputs": [
        {
          "internalType": "uint256",
          "name": "projectId",
          "type": "uint256"
        },
        {
          "internalType": "uint256",
          "name": "amount",
          "type": "uint256"
        },
        {
          "internalType": "address",
          "name": "investor",
          "type": "address"
        }
      ],
      "name": "redeemAllocationFCFS",
      "outputs": [],
      "stateMutability": "nonpayable",
      "type": "function"
    },
    {
      "inputs": [
        {
          "internalType": "address[]",
          "name": "addrs",
          "type": "address[]"
        }
      ],
      "name": "removeAdmins",
      "outputs": [],
      "stateMutability": "nonpayable",
      "type": "function"
    },
    {
      "inputs": [],
      "name": "renounceOwnership",
      "outputs": [],
      "stateMutability": "nonpayable",
      "type": "function"
    },
    {
      "inputs": [
        {
          "internalType": "address",
          "name": "newSigner",
          "type": "address"
        }
      ],
      "name": "setSigner",
      "outputs": [],
      "stateMutability": "nonpayable",
      "type": "function"
    },
    {
      "inputs": [
        {
          "internalType": "uint256",
          "name": "projectId",
          "type": "uint256"
        }
      ],
      "name": "startFCFS",
      "outputs": [],
      "stateMutability": "nonpayable",
      "type": "function"
    },
    {
      "inputs": [
        {
          "internalType": "uint256",
          "name": "projectId",
          "type": "uint256"
        }
      ],
      "name": "startIDO",
      "outputs": [],
      "stateMutability": "nonpayable",
      "type": "function"
    },
    {
      "inputs": [
        {
          "internalType": "uint256",
          "name": "projectId",
          "type": "uint256"
        },
        {
          "internalType": "uint256",
          "name": "subCount",
          "type": "uint256"
        }
      ],
      "name": "subTotalAmount",
      "outputs": [],
      "stateMutability": "nonpayable",
      "type": "function"
    },
    {
      "inputs": [],
      "name": "totalSupply",
      "outputs": [
        {
          "internalType": "uint256",
          "name": "",
          "type": "uint256"
        }
      ],
      "stateMutability": "view",
      "type": "function"
    },
    {
      "inputs": [
        {
          "internalType": "address",
          "name": "newOwner",
          "type": "address"
        }
      ],
      "name": "transferOwnership",
      "outputs": [],
      "stateMutability": "nonpayable",
      "type": "function"
    },
    {
      "inputs": [
        {
          "internalType": "contract IERC20",
          "name": "token",
          "type": "address"
        },
        {
          "internalType": "address",
          "name": "to",
          "type": "address"
        },
        {
          "internalType": "uint256",
          "name": "amount",
          "type": "uint256"
        }
      ],
      "name": "withdraw",
      "outputs": [],
      "stateMutability": "nonpayable",
      "type": "function"
    },
    {
      "inputs": [
        {
          "internalType": "uint256",
          "name": "projectId",
          "type": "uint256"
        },
        {
          "internalType": "address",
          "name": "to",
          "type": "address"
        }
      ],
      "name": "withdrawProject",
      "outputs": [],
      "stateMutability": "nonpayable",
      "type": "function"
    }
  ],
  "bytecode": "0x60806040526002805460ff191690553480156200001b57600080fd5b5060405162005294380380620052948339810160408190526200003e91620001b1565b62000049336200005b565b6200005481620000ab565b506200029d565b600080546001600160a01b038381166001600160a01b0319831681178455604051919092169283917f8be0079c531659141344cd1fd0a4f28419497f9722a3daafe3b4186f6b6457e09190a35050565b60025460ff1615620000f45760405162461bcd60e51b815260206004820152600e60248201526d185b1c9958591e481a5b9a5d195960921b604482015260640160405180910390fd5b620000ff816200010f565b506002805460ff19166001179055565b6040518060800160405280604f815260200162005245604f9139805160209182012082519282019290922060408051808201825260018152603160f81b90840152805180840194909452838101919091527fc89efdaa54c0f20c7adf612882df0950f5a951637e0307cdcb4c672f298b8bc660608401523060808401524660a0808501919091528151808503909101815260c090930190528151910120600355565b60006020808385031215620001c4578182fd5b82516001600160401b0380821115620001db578384fd5b818501915085601f830112620001ef578384fd5b81518181111562000204576200020462000287565b604051601f8201601f19908116603f011681019083821181831017156200022f576200022f62000287565b81604052828152888684870101111562000247578687fd5b8693505b828410156200026a57848401860151818501870152928501926200024b565b828411156200027b57868684830101525b98975050505050505050565b634e487b7160e01b600052604160045260246000fd5b614f9880620002ad6000396000f3fe6080604052600436106101e25760003560e01c80633918691911610102578063b04d211d11610095578063f358ff2411610064578063f358ff24146105d3578063f466b0cd146105f3578063f7d2599514610636578063f87b5de21461065657600080fd5b8063b04d211d14610553578063cae587e114610573578063d9caed1214610593578063f2fde38b146105b357600080fd5b80637ac3c02f116100d15780637ac3c02f146104c35780638da5cb5b146104f55780639c54df64146105135780639f9b19fb1461053357600080fd5b8063391869191461044e5780635e6be6151461046e5780636c19e7831461048e578063715018a6146104ae57600080fd5b806320379ee51161017a5780632d0335ab116101495780632d0335ab146103c55780632f609f83146103fb5780633408e4701461041b578063377e11e01461042e57600080fd5b806320379ee514610327578063234e9c911461033c57806324d7806c1461035c5780632cca0267146103a557600080fd5b80630f7e5970116101b65780630f7e59701461027f5780631229b24e146102c857806315270ace146102e857806318160ddd1461030857600080fd5b80623d6166146101e757806302d8393a14610209578063034e3905146102295780630c53c51c1461025f575b600080fd5b3480156101f357600080fd5b50610207610202366004614af4565b610676565b005b34801561021557600080fd5b50610207610224366004614922565b6109e0565b34801561023557600080fd5b50610249610244366004614922565b610b02565b6040516102569190614cf3565b60405180910390f35b61027261026d366004614688565b610dfc565b6040516102569190614ce0565b34801561028b57600080fd5b506102726040518060400160405280600181526020017f310000000000000000000000000000000000000000000000000000000000000081525081565b3480156102d457600080fd5b506102076102e3366004614981565b611002565b3480156102f457600080fd5b506102076103033660046147d4565b61145c565b34801561031457600080fd5b506007545b604051908152602001610256565b34801561033357600080fd5b50600354610319565b34801561034857600080fd5b50610207610357366004614922565b611597565b34801561036857600080fd5b5061039561037736600461466c565b6001600160a01b031660009081526001602052604090205460ff1690565b6040519015158152602001610256565b3480156103b157600080fd5b506102076103c0366004614922565b611690565b3480156103d157600080fd5b506103196103e036600461466c565b6001600160a01b031660009081526004602052604090205490565b34801561040757600080fd5b50610207610416366004614922565b611a4e565b34801561042757600080fd5b5046610319565b34801561043a57600080fd5b50610207610449366004614741565b611b46565b34801561045a57600080fd5b50610319610469366004614847565b611c1a565b34801561047a57600080fd5b50610207610489366004614952565b611c42565b34801561049a57600080fd5b506102076104a936600461466c565b611e54565b3480156104ba57600080fd5b50610207611edd565b3480156104cf57600080fd5b506009546001600160a01b03165b6040516001600160a01b039091168152602001610256565b34801561050157600080fd5b506000546001600160a01b03166104dd565b34801561051f57600080fd5b5061020761052e366004614741565b611f43565b34801561053f57600080fd5b5061020761054e366004614922565b612012565b34801561055f57600080fd5b5061020761056e366004614922565b61250b565b34801561057f57600080fd5b5061020761058e366004614ad3565b61262c565b34801561059f57600080fd5b506102076105ae366004614794565b6127ce565b3480156105bf57600080fd5b506102076105ce36600461466c565b6128d9565b3480156105df57600080fd5b506102076105ee36600461487a565b6129bb565b3480156105ff57600080fd5b5061031961060e366004614716565b6001600160a01b03919091166000908152600560209081526040808320938352929052205490565b34801561064257600080fd5b50610207610651366004614a8e565b612eec565b34801561066257600080fd5b50610207610671366004614ad3565b613200565b6009546001600160a01b031661068a61331e565b6001600160a01b03161461070b5760405162461bcd60e51b815260206004820152602a60248201527f72656465656d416c6c6f636174696f6e464346533a206f6e6c79204d6574615460448201527f72616e73616374696f6e0000000000000000000000000000000000000000000060648201526084015b60405180910390fd5b60008381526006602052604090206002600c82015460ff16600481111561074257634e487b7160e01b600052602160045260246000fd5b146107b55760405162461bcd60e51b815260206004820152602760248201527f72656465656d416c6c6f636174696f6e464346533a207374617465206973206e60448201527f6f742066636673000000000000000000000000000000000000000000000000006064820152608401610702565b80600b015483111580156107c95750600083115b61083a5760405162461bcd60e51b8152602060048201526024808201527f72656465656d416c6c6f636174696f6e464346533a20696e76616c696420616d60448201527f6f756e74000000000000000000000000000000000000000000000000000000006064820152608401610702565b6001600160a01b03821660008181526005602090815260408083208884529091528120546006840180549193918490811061088557634e487b7160e01b600052603260045260246000fd5b60009182526020909120015460018501546001600160a01b039182169290921492506108b4911685308861337b565b806108cb576108c6838587600161342c565b61096c565b848360080183815481106108ef57634e487b7160e01b600052603260045260246000fd5b9060005260206000200160008282546109089190614e29565b90915550506008830180548390811061093157634e487b7160e01b600052603260045260246000fd5b906000526020600020015483600701838154811061095f57634e487b7160e01b600052603260045260246000fd5b6000918252602090912001555b8483600a0160008282546109809190614e29565b925050819055508483600b01600082825461099b9190614e80565b909155505060405185906001600160a01b0386169088907fb655f1aa9c57076a0adb6e81a17478e8106604112bffd64d593c7976cd61358390600090a4505050505050565b3360009081526001602052604090205460ff1680610a0857506000546001600160a01b031633145b610a405760405162461bcd60e51b81526020600482015260096024820152683737ba1030b236b4b760b91b6044820152606401610702565b60008181526006602052604090206001600c82015460ff166004811115610a7757634e487b7160e01b600052602160045260246000fd5b14610ac45760405162461bcd60e51b815260206004820152601460248201527f7374617274464346533a206261642073746174650000000000000000000000006044820152606401610702565b600c8101805460ff1916600217905560405182907f426994bce163ab57e3ca80400b3202bd25387fd7698f7356482393776d9056a390600090a25050565b610b0a6142c2565b60008281526006602090815260409182902082516101408101845281548152835160a0810185526001830180546001600160a01b039081168352600285015416828601526003840154828701526004840180548751818802810188019098528088529396949587810195939492936060860193909291830182828015610baf57602002820191906000526020600020905b815481526020019060010190808311610b9b575b5050505050815260200160048201805480602002602001604051908101604052809291908181526020018280548015610c0757602002820191906000526020600020905b815481526020019060010190808311610bf3575b505050505081525050815260200160068201805480602002602001604051908101604052809291908181526020018280548015610c6d57602002820191906000526020600020905b81546001600160a01b03168152600190910190602001808311610c4f575b5050505050815260200160078201805480602002602001604051908101604052809291908181526020018280548015610cc557602002820191906000526020600020905b815481526020019060010190808311610cb1575b5050505050815260200160088201805480602002602001604051908101604052809291908181526020018280548015610d1d57602002820191906000526020600020905b815481526020019060010190808311610d09575b5050505050815260200160098201805480602002602001604051908101604052809291908181526020018280548015610d7557602002820191906000526020600020905b815481526020019060010190808311610d61575b5050509183525050600a8201546020820152600b8201546040820152600c82015460609091019060ff166004811115610dbe57634e487b7160e01b600052602160045260246000fd5b6004811115610ddd57634e487b7160e01b600052602160045260246000fd5b8152600c9190910154610100900460ff16151560209091015292915050565b60408051606081810183526001600160a01b03881660008181526004602090815290859020548452830152918101869052610e3a87828787876135bd565b610eac5760405162461bcd60e51b815260206004820152602160248201527f5369676e657220616e64207369676e617475726520646f206e6f74206d61746360448201527f68000000000000000000000000000000000000000000000000000000000000006064820152608401610702565b6001600160a01b038716600090815260046020526040902054610ed09060016136c5565b6001600160a01b0388166000908152600460205260409081902091909155517f5845892132946850460bff5a0083f71031bc5bf9aadcd40f1de79423eac9b10b90610f2090899033908a90614cb4565b60405180910390a1600080306001600160a01b0316888a604051602001610f48929190614c6a565b60408051601f1981840301815290829052610f6291614c4e565b6000604051808303816000865af19150503d8060008114610f9f576040519150601f19603f3d011682016040523d82523d6000602084013e610fa4565b606091505b509150915081610ff65760405162461bcd60e51b815260206004820152601c60248201527f46756e6374696f6e2063616c6c206e6f74207375636365737366756c000000006044820152606401610702565b98975050505050505050565b3360009081526001602052604090205460ff168061102a57506000546001600160a01b031633145b6110625760405162461bcd60e51b81526020600482015260096024820152683737ba1030b236b4b760b91b6044820152606401610702565b80518251148015611074575082518151145b6110c05760405162461bcd60e51b815260206004820152601f60248201527f616464496e766573746f72733a20696e76616c696420617267756d656e7473006044820152606401610702565b6000858152600660205260408120905b8451811015611442576000198582815181106110fc57634e487b7160e01b600052603260045260246000fd5b602002602001015112156111525760405162461bcd60e51b815260206004820152601c60248201527f6368616e676550726f6a6563743a20696e76616c696420696e646578000000006044820152606401610702565b84818151811061117257634e487b7160e01b600052603260045260246000fd5b6020026020010151600019141561129b5760008382815181106111a557634e487b7160e01b600052603260045260246000fd5b6020026020010151116111fa5760405162461bcd60e51b815260206004820152601e60248201527f6368616e676550726f6a6563743a20616d6f756e74735b695d203d3d203000006044820152606401610702565b6112558285838151811061121e57634e487b7160e01b600052603260045260246000fd5b602002602001015185848151811061124657634e487b7160e01b600052603260045260246000fd5b6020026020010151600061342c565b82818151811061127557634e487b7160e01b600052603260045260246000fd5b602002602001015182600b0160008282546112909190614e29565b909155506114309050565b60006001600160a01b03168482815181106112c657634e487b7160e01b600052603260045260246000fd5b60200260200101516001600160a01b031614158061130c57508281815181106112ff57634e487b7160e01b600052603260045260246000fd5b6020026020010151600014155b61137e5760405162461bcd60e51b815260206004820152603660248201527f6368616e676550726f6a6563743a20696e766573746f7241646472735b695d2060448201527f616e6420616d6f756e74735b695d206973206e756c6c000000000000000000006064820152608401610702565b6113d7828683815181106113a257634e487b7160e01b600052603260045260246000fd5b60200260200101518584815181106113ca57634e487b7160e01b600052603260045260246000fd5b60200260200101516136d8565b611430828683815181106113fb57634e487b7160e01b600052603260045260246000fd5b602002602001015186848151811061142357634e487b7160e01b600052603260045260246000fd5b60200260200101516137f5565b8061143a81614ec3565b9150506110d0565b508451156114545761145481866139b7565b505050505050565b6000546001600160a01b031633146114b65760405162461bcd60e51b815260206004820181905260248201527f4f776e61626c653a2063616c6c6572206973206e6f7420746865206f776e65726044820152606401610702565b80518251146115075760405162461bcd60e51b815260206004820152601160248201527f617272206c656e677468206e6f742065710000000000000000000000000000006044820152606401610702565b60005b82518110156115915761157f83828151811061153657634e487b7160e01b600052603260045260246000fd5b602002602001015183838151811061155e57634e487b7160e01b600052603260045260246000fd5b6020026020010151866001600160a01b0316613a069092919063ffffffff16565b8061158981614ec3565b91505061150a565b50505050565b3360009081526001602052604090205460ff16806115bf57506000546001600160a01b031633145b6115f75760405162461bcd60e51b81526020600482015260096024820152683737ba1030b236b4b760b91b6044820152606401610702565b6000818152600660205260409020600c81015460ff6101009091041615156001146116645760405162461bcd60e51b815260206004820152601860248201527f706175736549444f3a20616c72656164792070617573656400000000000000006044820152606401610702565b600c0180547fffffffffffffffffffffffffffffffffffffffffffffffffffffffffffff00ff16905550565b6000818152600660205260409020600c01548190610100900460ff166116f85760405162461bcd60e51b815260206004820152601060248201527f70726f6a656374206f6e207061757365000000000000000000000000000000006044820152606401610702565b60008281526006602052604090206001600c82015460ff16600481111561172f57634e487b7160e01b600052602160045260246000fd5b146117a25760405162461bcd60e51b815260206004820152602560248201527f72656465656d416c6c6f636174696f6e3a207374617465206973206e6f74207260448201527f656465656d0000000000000000000000000000000000000000000000000000006064820152608401610702565b336000818152600560209081526040808320878452909152812054600684018054919391849081106117e457634e487b7160e01b600052603260045260246000fd5b6000918252602090912001546001600160a01b0316149050806118495760405162461bcd60e51b815260206004820152601f60248201527f72656465656d416c6c6f636174696f6e3a206e6f7420616c6c6f6361746564006044820152606401610702565b600083600801838154811061186e57634e487b7160e01b600052603260045260246000fd5b906000526020600020015484600701848154811061189c57634e487b7160e01b600052603260045260246000fd5b90600052602060002001546118b19190614e80565b9050600081116119295760405162461bcd60e51b815260206004820152602260248201527f72656465656d416c6c6f636174696f6e3a20616c72656164792072656465656d60448201527f65640000000000000000000000000000000000000000000000000000000000006064820152608401610702565b6001840154611943906001600160a01b031633308461337b565b8084600801848154811061196757634e487b7160e01b600052603260045260246000fd5b9060005260206000200160008282546119809190614e29565b9091555050600884018054849081106119a957634e487b7160e01b600052603260045260246000fd5b90600052602060002001548460070184815481106119d757634e487b7160e01b600052603260045260246000fd5b90600052602060002001819055508084600a0160008282546119f99190614e29565b925050819055508084600b016000828254611a149190614e80565b9091555050604051339087907fc5fcfb68332ef11d542d4ab7e75045a5e4d66eb2d8f846f13a48356b32e534db90600090a3505050505050565b3360009081526001602052604090205460ff1680611a7657506000546001600160a01b031633145b611aae5760405162461bcd60e51b81526020600482015260096024820152683737ba1030b236b4b760b91b6044820152606401610702565b6000818152600660205260409020600c810154610100900460ff1615611b165760405162461bcd60e51b815260206004820152601660248201527f636f6e74696e756549444f3a2049444f206973206f6e000000000000000000006044820152606401610702565b600c0180547fffffffffffffffffffffffffffffffffffffffffffffffffffffffffffff00ff1661010017905550565b6000546001600160a01b03163314611ba05760405162461bcd60e51b815260206004820181905260248201527f4f776e61626c653a2063616c6c6572206973206e6f7420746865206f776e65726044820152606401610702565b60005b8151811015611c1657600060016000848481518110611bd257634e487b7160e01b600052603260045260246000fd5b6020908102919091018101516001600160a01b03168252810191909152604001600020805460ff191691151591909117905580611c0e81614ec3565b915050611ba3565b5050565b6000600882604051611c2c9190614c4e565b9081526020016040518091039020549050919050565b3360009081526001602052604090205460ff1680611c6a57506000546001600160a01b031633145b611ca25760405162461bcd60e51b81526020600482015260096024820152683737ba1030b236b4b760b91b6044820152606401610702565b6000828152600660205260409020600a810154611d275760405162461bcd60e51b815260206004820152602660248201527f776974686472617750726f6a6563743a20796f752063616e6e6f74207769746860448201527f64726177203000000000000000000000000000000000000000000000000000006064820152608401610702565b6001600c82015460ff166004811115611d5057634e487b7160e01b600052602160045260246000fd5b1480611d8257506002600c82015460ff166004811115611d8057634e487b7160e01b600052602160045260246000fd5b145b611df45760405162461bcd60e51b815260206004820152602d60248201527f776974686472617750726f6a6563743a205374617465206d757374206265207260448201527f656465656d206f722066636673000000000000000000000000000000000000006064820152608401610702565b600a8101546001820154611e15916001600160a01b03909116908490613a06565b600c8101805460ff1916600317905560405183907f182632195c7da784232e532683a9b53f891fca943d08ebbe5056f19da53b29d090600090a2505050565b6000546001600160a01b03163314611eae5760405162461bcd60e51b815260206004820181905260248201527f4f776e61626c653a2063616c6c6572206973206e6f7420746865206f776e65726044820152606401610702565b6009805473ffffffffffffffffffffffffffffffffffffffff19166001600160a01b0392909216919091179055565b6000546001600160a01b03163314611f375760405162461bcd60e51b815260206004820181905260248201527f4f776e61626c653a2063616c6c6572206973206e6f7420746865206f776e65726044820152606401610702565b611f416000613a4f565b565b6000546001600160a01b03163314611f9d5760405162461bcd60e51b815260206004820181905260248201527f4f776e61626c653a2063616c6c6572206973206e6f7420746865206f776e65726044820152606401610702565b60005b8151811015611c16576001806000848481518110611fce57634e487b7160e01b600052603260045260246000fd5b6020908102919091018101516001600160a01b03168252810191909152604001600020805460ff19169115159190911790558061200a81614ec3565b915050611fa0565b6000818152600660205260409020600c01548190610100900460ff1661207a5760405162461bcd60e51b815260206004820152601060248201527f70726f6a656374206f6e207061757365000000000000000000000000000000006044820152606401610702565b600082815260066020526040902060028101546001600160a01b03166121085760405162461bcd60e51b815260206004820152602560248201527f636c61696d50726f6a6563743a20636c61696d546f6b656e207661722069732060448201527f656d7074790000000000000000000000000000000000000000000000000000006064820152608401610702565b3360008181526005602090815260408083208784529091529020546006830180549192918390811061214a57634e487b7160e01b600052603260045260246000fd5b6000918252602090912001546001600160a01b0316146121ac5760405162461bcd60e51b815260206004820152601a60248201527f636c61696d50726f6a6563743a2077726f6e672063616c6c65720000000000006044820152606401610702565b6003600c83015460ff1660048111156121d557634e487b7160e01b600052602160045260246000fd5b148061220757506004600c83015460ff16600481111561220557634e487b7160e01b600052602160045260246000fd5b145b6122535760405162461bcd60e51b815260206004820152601760248201527f636c61696d50726f6a6563743a206261642073746174650000000000000000006044820152606401610702565b600082600801828154811061227857634e487b7160e01b600052603260045260246000fd5b9060005260206000200154116122f65760405162461bcd60e51b815260206004820152602f60248201527f636c61696d50726f6a6563743a20696e766573746f72206973206e6f7420726560448201527f6465656d20616c6c6f636174696f6e00000000000000000000000000000000006064820152608401610702565b600082600901828154811061231b57634e487b7160e01b600052603260045260246000fd5b906000526020600020015490505b6004830154811015612481576004830180548290811061235957634e487b7160e01b600052603260045260246000fd5b906000526020600020015442106124685761241f3384600101600401838154811061239457634e487b7160e01b600052603260045260246000fd5b90600052602060002001546298968086600101600201548760080187815481106123ce57634e487b7160e01b600052603260045260246000fd5b9060005260206000200154670de0b6b3a76400006123ec9190614e61565b6123f69190614e41565b6124009190614e41565b61240a9190614e61565b60028601546001600160a01b03169190613a06565b600183600901838154811061244457634e487b7160e01b600052603260045260246000fd5b90600052602060002001600082825461245d9190614e29565b9091555061246f9050565b5050505050565b8061247981614ec3565b915050612329565b5060048201805461249490600190614e80565b815481106124b257634e487b7160e01b600052603260045260246000fd5b906000526020600020015442101580156124f357506004600c83015460ff1660048111156124f057634e487b7160e01b600052602160045260246000fd5b14155b156115915750600c01805460ff191660041790555050565b3360009081526001602052604090205460ff168061253357506000546001600160a01b031633145b61256b5760405162461bcd60e51b81526020600482015260096024820152683737ba1030b236b4b760b91b6044820152606401610702565b600081815260066020526040812090600c82015460ff1660048111156125a157634e487b7160e01b600052602160045260246000fd5b146125ee5760405162461bcd60e51b815260206004820152601660248201527f737461727452656465656d3a20626164207374617465000000000000000000006044820152606401610702565b600c8101805460ff1916600117905560405182907ffc4d53f4b800a26e3930b7695323b436e24cad5111af79f2faba87b372d5def190600090a25050565b3360009081526001602052604090205460ff168061265457506000546001600160a01b031633145b61268c5760405162461bcd60e51b81526020600482015260096024820152683737ba1030b236b4b760b91b6044820152606401610702565b6000828152600660205260409020600b8101548211156127145760405162461bcd60e51b815260206004820152602b60248201527f737562546f74616c416d6f756e743a20737562436f756e74203e20617661696c60448201527f61626c6542616c616e63650000000000000000000000000000000000000000006064820152608401610702565b6002600c82015460ff16600481111561273d57634e487b7160e01b600052602160045260246000fd5b146127b05760405162461bcd60e51b815260206004820152602160248201527f737562546f74616c416d6f756e743a207374617465206973206e6f742066636660448201527f73000000000000000000000000000000000000000000000000000000000000006064820152608401610702565b8181600b0160008282546127c49190614e80565b9091555050505050565b6000546001600160a01b031633146128285760405162461bcd60e51b815260206004820181905260248201527f4f776e61626c653a2063616c6c6572206973206e6f7420746865206f776e65726044820152606401610702565b806128c0576040517f70a082310000000000000000000000000000000000000000000000000000000081523060048201526001600160a01b038416906370a082319060240160206040518083038186803b15801561288557600080fd5b505afa158015612899573d6000803e3d6000fd5b505050506040513d601f19601f820116820180604052508101906128bd919061493a565b90505b6128d46001600160a01b0384168383613a06565b505050565b6000546001600160a01b031633146129335760405162461bcd60e51b815260206004820181905260248201527f4f776e61626c653a2063616c6c6572206973206e6f7420746865206f776e65726044820152606401610702565b6001600160a01b0381166129af5760405162461bcd60e51b815260206004820152602660248201527f4f776e61626c653a206e6577206f776e657220697320746865207a65726f206160448201527f64647265737300000000000000000000000000000000000000000000000000006064820152608401610702565b6129b881613a4f565b50565b3360009081526001602052604090205460ff16806129e357506000546001600160a01b031633145b612a1b5760405162461bcd60e51b81526020600482015260096024820152683737ba1030b236b4b760b91b6044820152606401610702565b8151835114612a6c5760405162461bcd60e51b815260206004820181905260248201527f63726561746550726f6a6563743a20617272206c656e677468206e6f742065716044820152606401610702565b836080015151846060015151148015612a89575060008460400151115b8015612a9e575083516001600160a01b031615155b612aea5760405162461bcd60e51b815260206004820152601c60248201527f63726561746550726f6a6563743a20696e76616c69642070726f7073000000006044820152606401610702565b612af6600a6000614376565b600160076000828254612b099190614e29565b90915550506007546000805b8551811015612c0057848181518110612b3e57634e487b7160e01b600052603260045260246000fd5b602002602001015182612b519190614e29565b600a805460018101825560009182527fc65a7bb8d6351c1cf70c95a316cc6a92839c986682d98bc35f958f4883f9d2a8018190558751919350829160059190899084908110612bb057634e487b7160e01b600052603260045260246000fd5b60200260200101516001600160a01b03166001600160a01b031681526020019081526020016000206000858152602001908152602001600020819055508080612bf890614ec3565b915050612b15565b50604051806101400160405280838152602001878152602001868152602001858152602001600a805480602002602001604051908101604052809291908181526020018280548015612c7157602002820191906000526020600020905b815481526020019060010190808311612c5d575b50505050508152602001600a805480602002602001604051908101604052809291908181526020018280548015612cc757602002820191906000526020600020905b815481526020019060010190808311612cb3575b505050505081526020016000815260200182815260200160006004811115612cff57634e487b7160e01b600052602160045260246000fd5b8152600160209182018190526000858152600683526040908190208451815584840151805193820180546001600160a01b0395861673ffffffffffffffffffffffffffffffffffffffff199182161782558287015160028501805491909716911617909455918201516003820155606082015180519194929392612d8b92600487019290910190614394565b5060808201518051612da7916004840191602090910190614394565b50505060408201518051612dc59160068401916020909101906143df565b5060608201518051612de1916007840191602090910190614394565b5060808201518051612dfd916008840191602090910190614394565b5060a08201518051612e19916009840191602090910190614394565b5060c0820151600a82015560e0820151600b820155610100820151600c8201805460ff19166001836004811115612e6057634e487b7160e01b600052602160045260246000fd5b021790555061012082015181600c0160016101000a81548160ff02191690831515021790555090505081600884604051612e9a9190614c4e565b908152602001604051809103902081905550817ff02b2ec29663d5b36a1df2e88fe199359338fdbff2719cdd6dc0b9cc9028440c84604051612edc9190614ce0565b60405180910390a2505050505050565b3360009081526001602052604090205460ff1680612f1457506000546001600160a01b031633145b612f4c5760405162461bcd60e51b81526020600482015260096024820152683737ba1030b236b4b760b91b6044820152606401610702565b80608001515181606001515114612fcb5760405162461bcd60e51b815260206004820152602560248201527f6368616e676550726f6a65637450726f70733a20617272206c656e677468206e60448201527f6f742065710000000000000000000000000000000000000000000000000000006064820152608401610702565b600082815260066020526040902081516001909101805490916001600160a01b03918216911614613020578151815473ffffffffffffffffffffffffffffffffffffffff19166001600160a01b039091161781555b602082015160018201546001600160a01b0390811691161461307057602082015160018201805473ffffffffffffffffffffffffffffffffffffffff19166001600160a01b039092169190911790555b816040015181600201541461308a57604082015160028201555b600381015460608301515114156131c9576000805b83606001515181101561318b578260030181815481106130cf57634e487b7160e01b600052603260045260246000fd5b9060005260206000200154846060015182815181106130fe57634e487b7160e01b600052603260045260246000fd5b602002602001015114158061316b575082600401818154811061313157634e487b7160e01b600052603260045260246000fd5b90600052602060002001548460800151828151811061316057634e487b7160e01b600052603260045260246000fd5b602002602001015114155b15613179576001915061318b565b8061318381614ec3565b91505061309f565b50801561159157606083015180516131ad916003850191602090910190614394565b5060808301518051612468916004850191602090910190614394565b606082015180516131e4916003840191602090910190614394565b5060808201518051611591916004840191602090910190614394565b3360009081526001602052604090205460ff168061322857506000546001600160a01b031633145b6132605760405162461bcd60e51b81526020600482015260096024820152683737ba1030b236b4b760b91b6044820152606401610702565b60008281526006602052604090206002600c82015460ff16600481111561329757634e487b7160e01b600052602160045260246000fd5b1461330a5760405162461bcd60e51b815260206004820152602160248201527f616464546f74616c416d6f756e743a207374617465206973206e6f742066636660448201527f73000000000000000000000000000000000000000000000000000000000000006064820152608401610702565b8181600b0160008282546127c49190614e29565b60003330141561337557600080368080601f0160208091040260200160405190810160405280939291908181526020018383808284376000920191909152505050503601516001600160a01b031691506133789050565b50335b90565b6040516001600160a01b03808516602483015283166044820152606481018290526115919085907f23b872dd00000000000000000000000000000000000000000000000000000000906084015b60408051601f198184030181529190526020810180517bffffffffffffffffffffffffffffffffffffffffffffffffffffffff167fffffffff0000000000000000000000000000000000000000000000000000000090931692909217909152613aac565b6001600160a01b03831660009081526001602052604090205460ff161580156134785750826001600160a01b031661346c6000546001600160a01b031690565b6001600160a01b031614155b6134ea5760405162461bcd60e51b815260206004820152603a60248201527f5f616464496e766573746f723a20696e766573746f722063616e6e6f7420626560448201527f20616e2061646d696e6973747261746f72206f72206f776e65720000000000006064820152608401610702565b6006840180546001808201835560009283526020808420909201805473ffffffffffffffffffffffffffffffffffffffff19166001600160a01b03881617905560078701805491820181558352912001829055600884018161354d57600061354f565b825b815460018181018455600093845260208085209092019290925560098701805480840182559084529083200191909155600685015461358e9190614e80565b6001600160a01b0390931660009081526005602090815260408083209654835295905293909320919091555050565b60006001600160a01b03861661363b5760405162461bcd60e51b815260206004820152602560248201527f4e61746976654d6574615472616e73616374696f6e3a20494e56414c49445f5360448201527f49474e45520000000000000000000000000000000000000000000000000000006064820152608401610702565b600161364e61364987613b91565b613c0e565b6040805160008152602081018083529290925260ff851690820152606081018690526080810185905260a0016020604051602081039080840390855afa15801561369c573d6000803e3d6000fd5b505050602060405103516001600160a01b0316866001600160a01b031614905095945050505050565b60006136d18284614e29565b9392505050565b8260080182815481106136fb57634e487b7160e01b600052603260045260246000fd5b906000526020600020015481101561377b5760405162461bcd60e51b815260206004820152602860248201527f5f6368616e6765496e766573746f72416d6f756e743a20616d6f756e74203c2060448201527f72656465656d65640000000000000000000000000000000000000000000000006064820152608401610702565b60008360070183815481106137a057634e487b7160e01b600052603260045260246000fd5b90600052602060002001549050818114611591576137bf818386613c59565b818460070184815481106137e357634e487b7160e01b600052603260045260246000fd5b60009182526020909120015550505050565b6001600160a01b03811660009081526001602052604090205460ff161580156138415750806001600160a01b03166138356000546001600160a01b031690565b6001600160a01b031614155b6138d95760405162461bcd60e51b815260206004820152604160248201527f5f6368616e6765496e766573746f72416464723a20696e766573746f7220636160448201527f6e6e6f7420626520616e2061646d696e6973747261746f72206f72206f776e6560648201527f7200000000000000000000000000000000000000000000000000000000000000608482015260a401610702565b60008360060183815481106138fe57634e487b7160e01b600052603260045260246000fd5b6000918252602090912001546001600160a01b03908116915082168114611591576001600160a01b0380821660009081526005602081815260408084208954855282528084208490559386168352908152828220875483529052208390556006840180548391908590811061398357634e487b7160e01b600052603260045260246000fd5b9060005260206000200160006101000a8154816001600160a01b0302191690836001600160a01b0316021790555050505050565b60005b81518110156128d4576139f4838383815181106139e757634e487b7160e01b600052603260045260246000fd5b6020026020010151613cad565b806139fe81614ec3565b9150506139ba565b6040516001600160a01b0383166024820152604481018290526128d49084907fa9059cbb00000000000000000000000000000000000000000000000000000000906064016133c8565b600080546001600160a01b0383811673ffffffffffffffffffffffffffffffffffffffff19831681178455604051919092169283917f8be0079c531659141344cd1fd0a4f28419497f9722a3daafe3b4186f6b6457e09190a35050565b6000613b01826040518060400160405280602081526020017f5361666545524332303a206c6f772d6c6576656c2063616c6c206661696c6564815250856001600160a01b031661412a9092919063ffffffff16565b8051909150156128d45780806020019051810190613b1f9190614774565b6128d45760405162461bcd60e51b815260206004820152602a60248201527f5361666545524332303a204552433230206f7065726174696f6e20646964206e60448201527f6f742073756363656564000000000000000000000000000000000000000000006064820152608401610702565b6000604051806080016040528060438152602001614f206043913980516020918201208351848301516040808701518051908601209051613bf1950193845260208401929092526001600160a01b03166040830152606082015260800190565b604051602081830303815290604052805190602001209050919050565b6000613c1960035490565b6040517f19010000000000000000000000000000000000000000000000000000000000006020820152602281019190915260428101839052606201613bf1565b8183146128d45782821115613c9057613c728383614e80565b81600b016000828254613c859190614e29565b909155506128d49050565b613c9a8284614e80565b81600b0160008282546127c49190614e80565b6000826006018281548110613cd257634e487b7160e01b600052603260045260246000fd5b6000918252602090912001546008840180546001600160a01b0390921692509083908110613d1057634e487b7160e01b600052603260045260246000fd5b9060005260206000200154836007018381548110613d3e57634e487b7160e01b600052603260045260246000fd5b9060005260206000200154613d539190614e80565b83600b016000828254613d669190614e80565b925050819055506000836008018381548110613d9257634e487b7160e01b600052603260045260246000fd5b90600052602060002001541115613dea57826008018281548110613dc657634e487b7160e01b600052603260045260246000fd5b906000526020600020015483600a016000828254613de49190614e80565b90915550505b6001600160a01b03811660009081526005602090815260408083208654845290915281208190556006840154613e2290600190614e80565b905082811461402f57836006018181548110613e4e57634e487b7160e01b600052603260045260246000fd5b6000918252602090912001546006850180546001600160a01b039092169185908110613e8a57634e487b7160e01b600052603260045260246000fd5b9060005260206000200160006101000a8154816001600160a01b0302191690836001600160a01b03160217905550836007018181548110613edb57634e487b7160e01b600052603260045260246000fd5b9060005260206000200154846007018481548110613f0957634e487b7160e01b600052603260045260246000fd5b9060005260206000200181905550836008018181548110613f3a57634e487b7160e01b600052603260045260246000fd5b9060005260206000200154846008018481548110613f6857634e487b7160e01b600052603260045260246000fd5b9060005260206000200181905550836009018181548110613f9957634e487b7160e01b600052603260045260246000fd5b9060005260206000200154846009018481548110613fc757634e487b7160e01b600052603260045260246000fd5b90600052602060002001819055508260056000866006018681548110613ffd57634e487b7160e01b600052603260045260246000fd5b60009182526020808320909101546001600160a01b031683528281019390935260409182018120885482529092529020555b8360060180548061405057634e487b7160e01b600052603160045260246000fd5b6000828152602090208101600019908101805473ffffffffffffffffffffffffffffffffffffffff19169055019055600784018054806140a057634e487b7160e01b600052603160045260246000fd5b60019003818190600052602060002001600090559055836008018054806140d757634e487b7160e01b600052603160045260246000fd5b600190038181906000526020600020016000905590558360090180548061410e57634e487b7160e01b600052603160045260246000fd5b6001900381819060005260206000200160009055905550505050565b60606141398484600085614141565b949350505050565b6060824710156141b95760405162461bcd60e51b815260206004820152602660248201527f416464726573733a20696e73756666696369656e742062616c616e636520666f60448201527f722063616c6c00000000000000000000000000000000000000000000000000006064820152608401610702565b6001600160a01b0385163b6142105760405162461bcd60e51b815260206004820152601d60248201527f416464726573733a2063616c6c20746f206e6f6e2d636f6e74726163740000006044820152606401610702565b600080866001600160a01b0316858760405161422c9190614c4e565b60006040518083038185875af1925050503d8060008114614269576040519150601f19603f3d011682016040523d82523d6000602084013e61426e565b606091505b509150915061427e828286614289565b979650505050505050565b606083156142985750816136d1565b8251156142a85782518084602001fd5b8160405162461bcd60e51b81526004016107029190614ce0565b604051806101400160405280600081526020016143196040518060a0016040528060006001600160a01b0316815260200160006001600160a01b031681526020016000815260200160608152602001606081525090565b81526020016060815260200160608152602001606081526020016060815260200160008152602001600081526020016000600481111561436957634e487b7160e01b600052602160045260246000fd5b8152600060209091015290565b50805460008255906000526020600020908101906129b89190614441565b8280548282559060005260206000209081019282156143cf579160200282015b828111156143cf5782518255916020019190600101906143b4565b506143db929150614441565b5090565b8280548282559060005260206000209081019282156143cf579160200282015b828111156143cf578251825473ffffffffffffffffffffffffffffffffffffffff19166001600160a01b039091161782556020909201916001909101906143ff565b5b808211156143db5760008155600101614442565b600067ffffffffffffffff83111561447057614470614ef4565b6144836020601f19601f86011601614dd4565b905082815283838301111561449757600080fd5b828260208301376000602084830101529392505050565b600082601f8301126144be578081fd5b813560206144d36144ce83614e05565b614dd4565b80838252828201915082860187848660051b89010111156144f2578586fd5b855b8581101561451957813561450781614f0a565b845292840192908401906001016144f4565b5090979650505050505050565b600082601f830112614536578081fd5b813560206145466144ce83614e05565b80838252828201915082860187848660051b8901011115614565578586fd5b855b8581101561451957813584529284019290840190600101614567565b803561458e81614f0a565b919050565b600082601f8301126145a3578081fd5b6136d183833560208501614456565b600060a082840312156145c3578081fd5b60405160a0810167ffffffffffffffff82821081831117156145e7576145e7614ef4565b81604052829350843591506145fb82614f0a565b81835261460a60208601614583565b602084015260408501356040840152606085013591508082111561462d57600080fd5b61463986838701614526565b6060840152608085013591508082111561465257600080fd5b5061465f85828601614526565b6080830152505092915050565b60006020828403121561467d578081fd5b81356136d181614f0a565b600080600080600060a0868803121561469f578081fd5b85356146aa81614f0a565b9450602086013567ffffffffffffffff8111156146c5578182fd5b8601601f810188136146d5578182fd5b6146e488823560208401614456565b9450506040860135925060608601359150608086013560ff81168114614708578182fd5b809150509295509295909350565b60008060408385031215614728578182fd5b823561473381614f0a565b946020939093013593505050565b600060208284031215614752578081fd5b813567ffffffffffffffff811115614768578182fd5b614139848285016144ae565b600060208284031215614785578081fd5b815180151581146136d1578182fd5b6000806000606084860312156147a8578081fd5b83356147b381614f0a565b925060208401356147c381614f0a565b929592945050506040919091013590565b6000806000606084860312156147e8578081fd5b83356147f381614f0a565b9250602084013567ffffffffffffffff8082111561480f578283fd5b61481b878388016144ae565b93506040860135915080821115614830578283fd5b5061483d86828701614526565b9150509250925092565b600060208284031215614858578081fd5b813567ffffffffffffffff81111561486e578182fd5b61413984828501614593565b6000806000806080858703121561488f578182fd5b843567ffffffffffffffff808211156148a6578384fd5b6148b2888389016145b2565b955060208701359150808211156148c7578384fd5b6148d3888389016144ae565b945060408701359150808211156148e8578384fd5b6148f488838901614526565b93506060870135915080821115614909578283fd5b5061491687828801614593565b91505092959194509250565b600060208284031215614933578081fd5b5035919050565b60006020828403121561494b578081fd5b5051919050565b60008060408385031215614964578182fd5b82359150602083013561497681614f0a565b809150509250929050565b600080600080600060a08688031215614998578283fd5b8535945060208087013567ffffffffffffffff808211156149b7578586fd5b6149c38a838b01614526565b965060408901359150808211156149d8578586fd5b818901915089601f8301126149eb578586fd5b81356149f96144ce82614e05565b8082825285820191508585018d878560051b8801011115614a1857898afd5b8995505b83861015614a3a578035835260019590950194918601918601614a1c565b50975050506060890135925080831115614a52578384fd5b614a5e8a848b016144ae565b94506080890135925080831115614a73578384fd5b5050614a8188828901614526565b9150509295509295909350565b60008060408385031215614aa0578182fd5b82359150602083013567ffffffffffffffff811115614abd578182fd5b614ac9858286016145b2565b9150509250929050565b60008060408385031215614ae5578182fd5b50508035926020909101359150565b600080600060608486031215614b08578081fd5b83359250602084013591506040840135614b2181614f0a565b809150509250925092565b6000815180845260208085019450808401835b83811015614b645781516001600160a01b031687529582019590820190600101614b3f565b509495945050505050565b6000815180845260208085019450808401835b83811015614b6457815187529582019590820190600101614b82565b60008151808452614bb6816020860160208601614e97565b601f01601f19169290920160200192915050565b60058110614be857634e487b7160e01b600052602160045260246000fd5b9052565b60006001600160a01b038083511684528060208401511660208501525060408201516040840152606082015160a06060850152614c2c60a0850182614b6f565b905060808301518482036080860152614c458282614b6f565b95945050505050565b60008251614c60818460208701614e97565b9190910192915050565b60008351614c7c818460208801614e97565b60609390931b7fffffffffffffffffffffffffffffffffffffffff000000000000000000000000169190920190815260140192915050565b60006001600160a01b03808616835280851660208401525060606040830152614c456060830184614b9e565b6020815260006136d16020830184614b9e565b602081528151602082015260006020830151610140806040850152614d1c610160850183614bec565b91506040850151601f1980868503016060870152614d3a8483614b2c565b93506060870151915080868503016080870152614d578483614b6f565b935060808701519150808685030160a0870152614d748483614b6f565b935060a08701519150808685030160c087015250614d928382614b6f565b92505060c085015160e085015260e0850151610100818187015280870151915050610120614dc281870183614bca565b90950151151593019290925250919050565b604051601f8201601f1916810167ffffffffffffffff81118282101715614dfd57614dfd614ef4565b604052919050565b600067ffffffffffffffff821115614e1f57614e1f614ef4565b5060051b60200190565b60008219821115614e3c57614e3c614ede565b500190565b600082614e5c57634e487b7160e01b81526012600452602481fd5b500490565b6000816000190483118215151615614e7b57614e7b614ede565b500290565b600082821015614e9257614e92614ede565b500390565b60005b83811015614eb2578181015183820152602001614e9a565b838111156115915750506000910152565b6000600019821415614ed757614ed7614ede565b5060010190565b634e487b7160e01b600052601160045260246000fd5b634e487b7160e01b600052604160045260246000fd5b6001600160a01b03811681146129b857600080fdfe4d6574615472616e73616374696f6e2875696e74323536206e6f6e63652c616464726573732066726f6d2c62797465732066756e6374696f6e5369676e617475726529a26469706673582212203a4beceb5636ed667947c6bed93812c0f609c37b9839c98012d349147183517664736f6c63430008040033454950373132446f6d61696e28737472696e67206e616d652c737472696e672076657273696f6e2c6164647265737320766572696679696e67436f6e74726163742c627974657333322073616c7429",
  "linkReferences": {},
  "deployedLinkReferences": {}
}